:020000043400C6
:10040000000018342DD60134B931003489D60134B6
:10041000BB310034BD31003489D60134BF310034E2
:10042000000000000000000000000000B1CE013418
:10043000C13100340000000041CE013471CB0134E1
:1004400089D601340000000089D6013489D60134F0
:1004500089D6013489D6013489D6013489D601344C
:1004600089D601340000000089D6013489D60134D0
:1004700089D601344D21003489D6013400000000B2
:1004800089D601340000000089D6013489D60134B0
:1004900089D6013489D6013489D6013489D601340C
:1004A00089D6013489D6013489D6013489D60134FC
:1004B00089D6013489D6013489D6013489D60134EC
:1004C00089D6013489D6013489D6013489D60134DC
:1004D00089D6013489D6013489D6013489D60134CC
:1004E00089D601340000000089D6013489D6013450
:1004F00089D6013489D6013489D60134C331003418
:10050000D1310034000000000000000000000000B5
:1005100089D60134C958013489D6013489D60134C9
:1005200089D6013489D6013489D6013489D601347B
:1005300089D6013489D6013489D6013489D601346B
:1005400089D60134E1310034ED31003489D60134EB
:1005500089D6013489D6013489D6013489D601344B
:1005600089D6013489D6013489D6013489D601343B
:1005700089D6013489D6013489D6013489D601342B
:1005800089D6013489D6013489D6013489D601341B
:1005900089D6013489D6013489D6013489D601340B
:1005A00089D6013489D6013489D6013489D60134FB
:1005B00089D6013489D6013489D6013489D60134EB
:1005C00089D6013489D6013489D6013489D60134DB
:1005D00089D6013489D6013489D6013489D60134CB
:1005E00089D6013489D6013489D6013489D60134BB
:1005F00089D6013489D6013489D6013489D60134AB
:1006000089D6013489D6013489D6013489D601349A
:1006100089D6013489D6013489D6013489D601348A
:1006200089D6013489D6013489D6013489D601347A
:1006300089D6013489D6013489D6013489D601346A
:1006400089D6013489D6013489D6013489D601345A
:1006500089D6013489D6013489D6013489D601344A
:1006600089D6013489D6013489D6013489D601343A
:1006700089D6013489D6013489D6013489D601342A
:1006800089D6013489D6013489D6013489D601341A
:1006900089D6013489D6013489D6013489D601340A
:1006A00089D6013489D6013489D6013489D60134FA
:1006B00089D6013489D6013489D6013489D60134EA
:1006C00089D6013489D6013489D6013489D60134DA
:1006D00089D6013489D6013489D6013489D60134CA
:1006E00089D6013489D6013489D6013489D60134BA
:1006F00089D6013489D6013489D6013489D60134AA
:1007000089D6013489D6013489D6013489D6013499
:1007100089D6013489D6013489D6013489D6013489
:1007200089D6013489D6013489D6013489D6013479
:1007300089D6013489D6013489D6013489D6013469
:0C0740000000000089D6013489D6013485
:10075000034613F8012B002AFBD1181A0138704701
:1007600090EDAD5A30B52DED108B90EDA87BB5EE28
:10077000C05A89B08DED007BF1EE10FA90EDA47BAC
:10078000044691ED014A91ED002A91ED02FB91EDB5
:1007900004EB90ED123B90EDAACB90ED16BB8DEDE6
:1007A000047B90EDA66B09DCD0F8C832D648984798
:1007B0004FF0FF3009B0BDEC108B30BDB8EE444BAC
:1007C0009FEDC37BB8EE422B24EE077BB4EEC27BD9
:1007D000F1EE10FA0FDD90ED1C7B9FEDBF1B37EEA5
:1007E000011B9FEDBF7BB4EEC71BF1EE10FA37FE85
:1007F000017B80ED1C7B9FEDBC7B24EE074BB4EEB0
:10080000C24BF1EE10FA10D594ED1C7B9FEDB24B6C
:1008100037EE447B9FEDB64BB4EEC47BF1EE10FA9D
:1008200058BFB0EE474B84ED1C4B94F85050B7EED8
:10083000C55A012D64D19FEDB07B3FEE4E4B84EE47
:1008400007DB3FEE0E4B84EE07ABB0EECD7BB4EE94
:10085000C75BF1EE10FAB0EECA4B3CDBB4EEC45B02
:10086000F1EE10FA37DB002384F8783083EE0C9B2E
:10087000BCEEC99BB8EE499B29EE0C9B0022FCEE16
:10088000C95BB0EE498BCDED035A84F86020002B94
:1008900000F08C80F7EECB0BB7EEC70B8DED066B3F
:1008A00024F01AF9B2EE047BB7EEC00AB0EECE5BCC
:1008B00020EE070BB0EECF7BB4EEC57BF1EE10FA65
:1008C0009DED066B34DDB5EEC0FBF1EE10FA34D5CC
:1008D00039EE400B33E0B4EEC45BF1EE10FA25D5EF
:1008E0008AEE0D4B94EDAE5AB0EEC44BB7EEC55A3E
:1008F000B4EEC54BF1EE10FAB4BF01230023B5E707
:10090000B0EECF7BB0EECE4BB4EE474BF1EE10FA2B
:1009100034FE077BB4EEC57B9FED79ABF1EE10FAA8
:10092000B0EE4ADB8CBF012300239FE701239DE744
:10093000B5EEC0EBF1EE10FACAD539EE000B94ED2E
:100940003C7BB4EEC07BF1EE10FA03D5B0EE46BBB3
:10095000B0EE470B94ED3A7BB4EEC07BF1EE10FAAB
:1009600003DDB0EE46BBB0EE470B80EE0C8BBCEE69
:10097000C88BB8EE488B012D2CEE088B16D1B4F83D
:10098000E030022B5FD8FCEEC97BB8EE677B04EB4E
:10099000C30282ED207B82ED268B04EB0312013330
:1009A00082ED2CDB82ED2EABA4F8E03094F87830A9
:1009B0004BBB102204F1880104F180008DED066B21
:1009C0001DF08CFA102204F1A00104F198001DF032
:1009D00085FAD4E9302384ED249BC4E92C23D4E99F
:1009E000322384ED2A8BC4E92E23D4E934239DEDF0
:1009F000066BC4E93023D4E9362384ED34DB84ED7F
:100A000036ABC4E93223FCEEC87B17EE903A94ED86
:100A10001A7B039AB5EEC07B93421CBF012384F876
:100A20006030F1EE10FA71DD012384F860309DED45
:100A3000007BB4EEC7BBF1EE10FA79D59DED047BD7
:100A40003BEE076B66E094ED2A7B94EDAF5A38EEEF
:100A5000477BB7EEC55AB0EEC77BB4EEC57BF1EE6F
:100A600010FA2CDB94ED287B38EE477BB0EEC77B89
:100A7000B4EEC75BF1EE10FA21DD94ED320B94ED8C
:100A8000307B3AEE400B3DEE477B20EE000BA7EEAD
:100A9000070B8DED066B23F0F7FF94EDB07AB7EE00
:100AA000C77AB4EEC70BF1EE10FA9DED066B06D5D2
:100AB000FCEEC97B84F87850B8EE678B76E794F843
:100AC0007830012B04BF002384F878306EE700BF34
:100AD0009A9999999999A93F7B14AE47E17A843FF5
:100AE000343333333333C33F333333333333C33F9D
:100AF000111111111111B13FCD3B7F669EA0F63F40
:100B00000000000000000000AFF7023494F86030ED
:100B1000002B8CD188EE0C7BBCEEC77BB8EE477BFC
:100B200027EE0C7B84ED166B84ED127B012041E6F1
:100B30009DED006BEEE790ED1A6BB5EEC06B90ED9E
:100B4000124BF1EE10FA90EDAA5BB0EE467BDFBFE0
:100B500084EE057BBCEEC77BB8EE477B27EE057BBA
:100B6000B7EEC77B90ED3C5BB7EEC74AB4EEC54B22
:100B7000F1EE10FAC8BFB7EEC57B90ED3A5BB7EE69
:100B8000C74AB4EEC54BF1EE10FA48BFB7EEC57BCD
:100B9000B7EEC75AD0F8743230B580ED125B93EDE2
:100BA000005AD0EDAC7AB4EEC75AF1EE675AF1EEC6
:100BB00010FA4FF00001B0F8F83075FEA77A013B4B
:100BC0008AB2934205D8442202FB030303F59073D3
:100BD00011E000EB8204D4ED445A77EEA55AF4EE0E
:100BE000C75AF1EE10FA01F10101E9DB442303FBDE
:100BF000020202F59073B5EEC06BF1EE10FAC0F888
:100C0000743205DC93ED007AB7EEC77A80ED127B83
:100C10005A6803F1380142609A6803F12404826043
:100C2000DA68C2601A69026100F138025D690C334A
:100C30004561DD680C30C5601D69A342056151F84E
:100C4000045B42F8045BF1D1012030BD10B50446CD
:100C500090B070B10023084C40212370C4F8C80242
:100C6000064B6846064A23F0D7FE6846D4F8C832D9
:100C70009847204610B010BDB0890F34B0720F34C1
:100C8000EFF70234002814BF01204FF0FF30704707
:100C900080ED000A30B50C6844604C6884608C6854
:100CA000C460C96802F12404016100F138011568CB
:100CB0000C32456152F8085C0C30C56052F8045C97
:100CC000A242056153F8045B41F8045BEFD130BDEB
:100CD0002DE9F04F2DED068B0E46B0EE409BB0EEA9
:100CE000418B1D460446C7B0002800F08F819FED60
:100CF000CCAB80ED12AB0020CF494FF00008C4E927
:100D00001601C4E9A601C4E9AA01CC49DFF8609341
:100D1000C4F8B0124FF07E51C4F8B4124FF07C51B9
:100D2000C4E91A890FF20039D9E90089C4E91C899C
:100D3000C4E9A4894FF00008C4F8B812C049DFF82C
:100D40003493C4F8BC124FF07F510023C4E9A88942
:100D500001274FF00008C4F8C012711EDFF8189385
:100D600088B20428C4E9A0890FF2C429D9E900890E
:100D700084F86030C4E9A289A4F8E03084F87830BF
:100D8000A4F8787214D905234FF48071AD4A06A8EF
:100D900023F042FED4F8C83206A8984784F8507071
:100DA000204647B0BDEC068BBDE8F04FFFF7C3BE51
:100DB00095ED007AB7EEC77AB4EEC70BF1EE10FAF4
:100DC00012DDD4F8C832A048984795ED007AB7EE06
:100DD000C77A8DED009B8DED027B9C4A4FF48071AC
:100DE00006A823F019FED5E74FF0440C0CFB06587B
:100DF00018ED117AB7EEC77AB4EEC71BF1EE10FA10
:100E000041D5D4F8C8329248984798ED007AB7EEA9
:100E1000C77A8DED008B8DED027B8E4ADEE70CFBF1
:100E200008F705EB070944372F4499ED007AD7ED11
:100E3000007AB4EEE77AF1EE10FA08F1010A00F157
:100E4000010021DBD4F8C8328348984797ED007A37
:100E5000B7EEC77A8DED047BCDF808A099ED007A46
:100E6000B7EEC77A43468DED007B7C4A4FF4807124
:100E700006A823F0D1FDD4F8C83206A8984701236C
:100E800084F850308CE718461FFA80F84145C6D8E0
:100E900000234FF0440CB01E9FB2B94239D884ED04
:100EA0003A9B84ED3C8B0020A4F8F86083B2994211
:100EB00000F1010000F28B800027B84604F1FC0A23
:100EC00004F5907905EB070B09EB0700442259461E
:100ED0001DF096FCDBF8003008F101084AF8043BED
:100EE0001FFA88F39E4207F14407EBD8731E9BB2AA
:100EF000002E03F1010314BF1A460122C4F87492B4
:100F000004F5B271013A6AD1012384F8503023709C
:100F100046E702EB8709B842D9ED007A4FEA870825
:100F200007F1010A1ED908F10408904498ED007AEF
:100F3000B4EEE77AF1EE10FA14D8D4F8C832484883
:100F4000984798ED007AB7EEC77A8DED047BCDF81F
:100F500008A099ED007AB7EEC77A3B468DED007B8D
:100F6000404A83E70CFB07F805EB080A9AED007A84
:100F7000B4EEE77AF1EE10FA08F14408A84408DA72
:100F800098ED007AB4EEE77AF1EE10FA03F101037E
:100F900082D8D4F8C8323448984798ED007AB7EE32
:100FA000C77A8DED047B9AED007AB7EEC77A8DEDA6
:100FB000027B99ED007AB7EEC77A3B468DED007B58
:100FC0004FF48071294A06A823F026FD53E702EB6F
:100FD00083073F6804EB8303C3F8107166E7D4F816
:100FE000743291ED006A93ED007AB7EEC66AB7EEFF
:100FF000C77A36EE4A6B37EE4A7BB4EEC76BF1EE3A
:1010000010FA48BFC4F8741244317BE74FF0FF3048
:1010100047B0BDEC068BBDE8F08F00BFAFF300809A
:10102000000000000088B3409A9999999999B93FB6
:101030000000000000A06E400000F03F00004842A9
:1010400000002F43FFF7023443F80234CAF8023499
:1010500028F90234B0F902340DFA023471FA02347C
:10106000C9FA023438FB0234A2FB0234F9FB023421
:101070000000F0BF000008400000244030B50546E5
:1010800014468DB052B9D0F8C8321D489847D5F8EB
:10109000C8321C48984720460DB030BD93ED042B54
:1010A00093ED021B93ED000B0AAA08A906A800F015
:1010B0002FF8DDE90823CDE90223DDE90A23CDE994
:1010C0000423012398420446CDE90033DFD1694669
:1010D0002846FFF745FB0128044603D0D5F8C8325F
:1010E0000948D7E795F86030012BD4D12846FFF79F
:1010F00022FD01280446CED0D5F8C8320348C9E7FE
:101100007FFC0234E0FC023409FD02343DFD023470
:10111000B5EEC00BF1EE10FA1FB509D4B5EEC01B49
:10112000F1EE10FA04D4B5EEC02BF1EE10FA0DD5A5
:101130008DED022B8DED001B53EC102B44481CF061
:1011400079FD4FF0FF3005B05DF804FB9FED327B79
:10115000B4EEC70BF1EE10FA09DCB4EEC71BF1EEEA
:1011600010FA04DCB4EEC72BF1EE10FA07DD8DEDBA
:10117000022B8DED001B53EC102B3648DFE728B116
:1011800089B1B2B93449354B084607E071B13349EA
:101190003148002A304A314B18BF134602463048C6
:1011A0001CF048FDCDE72C492C48F2E72B490846B6
:1011B000EFE79FED1B7B9FED1C6B21EE077BB3EEF2
:1011C000005BA0EE067B9FED1A6BA2EE057BA7EEFF
:1011D000065B9FED197B80ED005B27EE417BBBEE4C
:1011E0000A5BA0EE057B9FED165BA2EE057B27EE6A
:1011F000067B81ED007B9FED147B27EE411BB2EE59
:10120000047BA0EE051BA2EE471B21EE061B01206E
:1012100082ED001B97E700BF0000000000E06F4078
:101220000000000000A06340000000000080474074
:10123000000000000000703F0000000000805540EA
:101240000000000000005C400000000000805940E9
:101250007AFD0234B8FD023474FD023472FD0234AA
:10126000F8FD0234000000002DE9F0419846436D7E
:101270000F460646069923B9C8F800700A60BDE813
:10128000F081214D5B00B5FBF3F59542F4D2B2FB42
:10129000F5F407EE902A04FB0554B8EE677A07EEE2
:1012A000904ADFED1A6AF8EE677A67EEA67AB4EE36
:1012B000E77AF1EE10FADFD5621B0A60013207EE21
:1012C000902AF8EE677A87EE270AB7EEC00A20F078
:1012D000D3F99FED0B7B20EE070BBCEEC00B10EE9D
:1012E000103A3B441F46C8F80030F36CBB4294BF31
:1012F000C8F80030C8F80070C1E700BFAFF3008045
:10130000000000000088D34040420F003333733F99
:1013100007EE901A9FED287AF8EE677A70B587EE9F
:10132000871A2DED028B08EE102AB7EEC11AB2EE25
:10133000040B05461C46069E1FF01AFDB8EE488BAE
:1013400028EE000BFCEEC07B17EE902A696CB8EE1D
:10135000677A914216D900232360C6ED007A6B6C40
:10136000DFED166A07EE903AF8EE677A67EEA67A36
:10137000B4EE677AF1EE10FAC8BF1A463260BDECDF
:10138000028B70BD07EE901AF8EE677A87EE270A97
:101390003160B7EEC00A20F06FF99FED057B20EEBB
:1013A000070BBCEEC00B84ED000AE8E7AFF300804A
:1013B000000000000088D34000409C4648E17A3F8E
:1013C00010B5044690B060B10023074C4021237053
:1013D000A065064B6846064A23F01EFB6846A36DCF
:1013E0009847204610B010BD808C0F34B6720F3471
:1013F00042FE0234002814BF01204FF0FF30704736
:1014000038220A23C0E9042364222D237821C0E96D
:10141000062340F2DC5330B5C0E9081341F2707482
:1014200042F6E063C0E90A430BA5D5E90045052370
:1014300048F2E80103650023C0E910310121C0E949
:101440000C4507A5D5E90045C0E91212C0E90E45D3
:10145000436530BDAFF3008000000040E17A943F67
:10146000000000E04D62703F10B5044620B1FFF768
:10147000C7FF0120207010BD4FF0FF30FBE72DE9C2
:10148000F04F15469B46044687B0002800F02381A4
:101490000378012B1AD102230370D4F85480B8F1D9
:1014A000000F17D0904B4FEA4802B3FBF2F3A66C43
:1014B0008E4211D2626CAA420ED9B5FBF3F203FB45
:1014C00012534BB1C4E90156012006E1022BE4D0CE
:1014D000002002E10123EAE70DF114092A4604ABDA
:1014E0002046CDF800900391FFF712FFDDE904726A
:1014F000D4F810C0B6EE005B07EE90CAB8EE676A8B
:1015000007EE90BAB8EEE77BB7EEC66A37EE057B1A
:1015100086EE070B236DB7EEC00B9B45039948D2AF
:10152000F0EE007AB4EEE70AF1EE10FA41D4616C05
:10153000B7EE007A8A4220D2012A134638BF01232F
:1015400007EE903AF8EEE77A67EE807AFDEEE77AFA
:1015500017EE903A8B42C1BF07EE901AB8EEE76AD9
:1015600007EE902AF8EE676AC3BFC6EE267A0B46EE
:1015700080EE270AB0EE470A6360B4EEC70AF1EEC8
:1015800010FAA1DDB7EEC00A20F076F8B3EE047BC6
:1015900020EE070B9FED527B20EE070BBDEEC00B3C
:1015A00010EE103AE26C3B449342D4BFA360A260B9
:1015B0008AE7ACEB0B0383EAE37EAEEBE37E0393B7
:1015C000E3699E4559D8D4F824E00398A3694343BE
:1015D000606900EB0C0ADA45DFF814A155D207EE7A
:1015E00090EA9FED427AF8EEE77A67EE877A07EEA7
:1015F000103AF1EE676AB8EEC77AB4EEE67AF1EE29
:1016000010FA04D5FDEEE77A17EE903A5B42002B14
:1016100050D0BE4244D1616C8A4201D3002B3FDAE4
:10162000039807EE902A02FB000006EE900A002BBA
:10163000B8EEE77BB8EEE66B2FDA94ED0E5BA5EE25
:10164000067BBDEEC77B17EE102A236CA7609A427B
:10165000B8BF1A468A42D4BF626061602046CDF8A6
:10166000009004ABD4E90121FFF7FEFD049B059D2A
:10167000A3606560CAF8608026E7236A9E452CBF98
:10168000D4F82CE0D4F828E09FE7ACEB000CDC4564
:1016900010DD7345A8BF7346B9E794ED0C5BCEE748
:1016A0001F44BE4203DCE66CBE42A8BF3E46C4E90E
:1016B0000126D3E7DAF8603098450AD02A4620465A
:1016C000CDF8009004ABB8F1000FCDD1FFF720FEAC
:1016D000CCE7A160CDE74FF0FF3007B0BDE8F08F59
:1016E0000000000000408F4040420F009A99593F8F
:1016F000808C0F3481F0004102E000BF83F0004392
:1017000030B54FEA41044FEA430594EA050F08BF9C
:1017100090EA020F1FBF54EA000C55EA020C7FEA60
:10172000645C7FEA655C00F0E2804FEA5454D4EBDD
:101730005555B8BF6D420CDD2C4480EA020281EAA7
:10174000030382EA000083EA010180EA020281EADF
:101750000303362D88BF30BD11F0004F4FEA013131
:101760004FF4801C4CEA113102D0404261EB410140
:1017700013F0004F4FEA03334CEA133302D05242C6
:1017800063EB430394EA050F00F0A780A4F1010482
:10179000D5F1200E0DDB02FA0EFC22FA05F28018BC
:1017A00041F1000103FA0EF2801843FA05F35941A2
:1017B0000EE0A5F120050EF1200E012A03FA0EFC21
:1017C00028BF4CF0020C43FA05F3C01851EBE3714B
:1017D00001F0004507D54FF0000EDCF1000C7EEB68
:1017E00000006EEB0101B1F5801F1BD3B1F5001FA6
:1017F0000CD349085FEA30004FEA3C0C04F10104C5
:101800004FEA445212F5800F80F09A80BCF1004FED
:1018100008BF5FEA500C50F1000041EB045141EA6F
:10182000050130BD5FEA4C0C404141EB0101013C38
:1018300028BFB1F5801FE9D291F0000F04BF014627
:101840000020B1FA81F308BF2033A3F10B03B3F1F9
:1018500020020CDA0C3208DD02F1140CC2F10C0289
:1018600001FA0CF021FA02F10CE002F11402D8BFE7
:10187000C2F1200C01FA02F120FA0CFCDCBF41EAB3
:101880000C019040E41AA2BF01EB0451294330BD82
:101890006FEA04041F3C1CDA0C340EDC04F114045F
:1018A000C4F1200220FA04F001FA02F340EA030036
:1018B00021FA04F345EA030130BDC4F10C04C4F17C
:1018C000200220FA02F001FA04F340EA030029465C
:1018D00030BD21FA04F0294630BD94F0000F83F4A6
:1018E000801306BF81F480110134013D4EE77FEA89
:1018F000645C18BF7FEA655C29D094EA050F08BFD5
:1019000090EA020F05D054EA000C04BF19461046B5
:1019100030BD91EA030F1EBF0021002030BD5FEAF9
:10192000545C05D14000494128BF41F0004130BD21
:1019300014F580043CBF01F5801130BD01F0004575
:1019400045F0FE4141F470014FF0000030BD7FEAE8
:10195000645C1ABF194610467FEA655C1CBF0B46E3
:10196000024650EA013406BF52EA033591EA030FFA
:1019700041F4002130BD00BF90F0000F04BF0021F2
:10198000704730B54FF4806404F132044FF0000525
:101990004FF0000150E700BF90F0000F04BF00219E
:1019A000704730B54FF4806404F1320410F0004504
:1019B00048BF40424FF000013EE700BF42004FEAFF
:1019C000E2014FEA31014FEA02701FBF12F07F437C
:1019D00093F07F4F81F06051704732F07F4208BF33
:1019E000704793F07F4F04BF41F40021704730B53A
:1019F0004FF4607401F0004521F000411CE700BF86
:101A000050EA010208BF704730B54FF000050AE008
:101A100050EA010208BF704730B511F0004502D509
:101A2000404261EB41014FF4806404F132045FEA0B
:101A3000915C3FF4D8AE4FF003025FEADC0C18BFB4
:101A400003325FEADC0C18BF033202EBDC02C2F1A6
:101A5000200300FA03FC20FA02F001FA03FE40EA38
:101A60000E0021FA02F11444BDE600BF7BB972B941
:101A70000029BEBF00204FF0004106E008BF00284B
:101A80001CBF6FF000414FF0FF3000F057B8ADF1D0
:101A9000080C6DE904CE002909DB002B1ADB22F0CB
:101AA0003BFEDDF804E0DDE9022304B0704740426C
:101AB00061EB4101002B1BDB22F02EFEDDF804E080
:101AC000DDE9022304B0404261EB4101524263EB85
:101AD00043037047524263EB430322F01DFEDDF8DF
:101AE00004E0DDE9022304B0404261EB41017047AC
:101AF000524263EB430322F00FFEDDF804E0DDE920
:101B0000022304B0524263EB4303704753B94AB90E
:101B1000002908BF00281CBF4FF0FF314FF0FF30F5
:101B200000F00CB8ADF1080C6DE904CE22F0F4FD24
:101B3000DDF804E0DDE9022304B07047704700BF20
:101B40000348044B834202D0034B03B1184770474C
:101B5000B0890F34B0890F3400000000064B0749EC
:101B6000C91A891048BF0131491003D0044B0BB189
:101B700001481847704700BFB0890F34B0890F344F
:101B80000000000010B5064C237843B9FFF7D8FFDA
:101B9000044B13B10448AFF300800123237010BD40
:101BA000E48C0F3400000000184E023408B5054BD9
:101BB0001BB105490548AFF30080BDE80840FFF7B9
:101BC000CDBF00BF00000000E88C0F34184E023477
:101BD000044B82B0C3F84C0AD3F84C320193019BFA
:101BE00002B0704700800256044B82B0C3F8600A0E
:101BF000D3F860320193019B02B070470080025617
:101C000030B5ADF51B7D4022002168461CF080F9FF
:101C10009822002110A81CF07BF94FF4C872002113
:101C200036A81CF075F901200FF0EEFA012002F041
:101C3000F5F80124002319227D210225CDE91D326A
:101C4000CDE925140822E121CDE91A53CDE921532C
:101C5000CDE92323CDE92932CDE92B31CDE92F532D
:101C6000CDE931231093062310A8CDE91F44CDE917
:101C70002745CDE92D45CDE934331C95339107F047
:101C80007BFA00B1FEE74FF440337F22CDE9002319
:101C90004FF0407302934FF08053CDE90C344FF076
:101CA0000053CDE90E344FF48013CDE90804CDE99B
:101CB0000A05CDE90330CDE905000790684607F035
:101CC00057FE00B1FEE7084B002261934FF440033A
:101CD000CDE93623054B36A8629308F0FFF900B131
:101CE000FEE70DF51B7D30BD140000031404000356
:101CF0002DE9F0439BB002F04BFB02AB014601AA79
:101D00004FF0FF3002F04CFB0024DDE9011220B25D
:101D1000013402F0CBFAC32CF7D1FFF771FF1AF0B0
:101D2000DBFE1023A94C0225C4F86C3AD4F86C22CF
:101D300001271292129AC4F85C3AD4F85C324FF040
:101D400007081193119B6023A14815A91593CDE9AC
:101D500016571895CDF8648005F0EAF84FF4E13392
:101D60009C489D4A0C21C0E900230023C0E90431AE
:101D7000C0E9023383614FF40043C3610EF074F98C
:101D8000024600B1FEE74FF00040DFF8A092FFF7F7
:101D90002BFFC4F8200AC9F820023846FFF718FFC5
:101DA0002846FFF715FF0420FFF712FF0820FFF772
:101DB0000FFF4FF48053C4F8543AD4F8543215A8A6
:101DC0001393139B854BCDE91622159306F0FAFE6B
:101DD000834B15A8159306F0F5FE824B15A81593B5
:101DE00006F0F0FE804B15A8159306F0EBFE01F00F
:101DF00099F97E487E4B03600EF024FD064628B11B
:101E0000A4217C4B7C4A7D481CF0CEFC0EF070FD7A
:101E10000EF092FD04200EF051FD0EF083FD13F044
:101E2000DDFE13F0E5FE304610F0BCFA304610F04F
:101E3000DDFB40F2011369463046ADF8003010F08A
:101E40006BF9304610F0D6F84FF40073C4F8583AE6
:101E5000D4F85832159503253846149315A9149BC8
:101E6000169506F0D5FD15A9082006F0D1FD15A997
:101E7000092006F0CDFD15A90A2006F0C9FD15A917
:101E80000B2006F0C5FD15A9042006F0C1FD404653
:101E900015A906F0BDFD2946594806F00FFE294652
:101EA000584806F00BFE2946574806F007FE29461B
:101EB000564806F003FE2946554806F0FFFD294620
:101EC000544806F0FBFD2946534806F0F7FD294625
:101ED000524806F0F3FD2946514806F0EFFD294629
:101EE000504806F0EBFD29464F4806F0E7FD29462D
:101EF000042006F0E3FD4FF48063C4F8583AD4F8A8
:101F000058221592159AC4F8183AC9F818324FF0A9
:101F1000FF33C4F8843AD4F884221092109AC4F89B
:101F20008C3AD4F88C220F920F9AC4F8903AD4F8D5
:101F300090220E920E9AC4F8943AD4F894220D92FC
:101F40000D9AC4F8983AD4F898220C920C9AC4F8D6
:101F50009C3AD4F89C220B920B9AC4F8A03AD4F87D
:101F6000A0220A920A9AC4F8A43AD4F8A4220992A8
:101F7000099AC4F8A83AD4F8A8220892089AC4F892
:101F8000AC3AD4F8AC220792079AC4F8B43AD4F821
:101F9000B4220692069AC4F8B83AD4F8B822059248
:101FA000059AC4F8BC3AD4F8BC220492049AC4F846
:101FB000883AD4F888320393039B00F079FE3046C8
:101FC00019F02CFF1BB0BDE8F08300BF0080025663
:101FD000001002566C9D0F34001000520031025266
:101FE000803102520032025280320252609D0F3420
:101FF00000400358E7DF023454FE0234F450023448
:102000000400003003000030020000300A000030FD
:10201000050000301C0000201D00002006000030DC
:102020000700003008000030180000100090025631
:102030007FB53B4A136843F400531360394B1A6A67
:1020400022F440321A621A6A22F040721A6202F0D6
:10205000FEF8354B5A6912F4003211D1BFF34F8F9D
:10206000BFF36F8FC3F85022BFF34F8FBFF36F8F53
:102070005A6942F400325A61BFF34F8FBFF36F8F3A
:10208000274A136843F480531360A2F573425369DF
:1020900013F4803328D1C2F88430BFF34F8F43F656
:1020A000E074D2F88030C3F3C900C3F34E335B0150
:1020B00000F1010E01464EF001E003EA040646EA93
:1020C0008175C2F8605201390FF007C8203B13F147
:1020D000200FEDD1BFF34F8F536943F48033536129
:1020E000BFF34F8FBFF36F8F104B4FF4806202939B
:1020F0000F4B1049019301230F480093002319F05F
:1021000099FD30B94FF4A2710C4B0D4A0D481CF0EB
:102110004BFB19F0D9FE40F247110B4B084AF5E78B
:1021200000E001E00080025600ED00E0009D0F3469
:10213000008D0F34FF500234F11C0034045102347E
:102140005FFE0234F4500234E7DF0234FEE700B5EC
:10215000E5B04FF4C872002168461BF0D9FE002399
:102160001022CDE900234FF400134FF08051329339
:1021700003236846CDE9221307F0B0FF48B90023D6
:102180000822CDE90023282324906846259307F0F0
:10219000A5FF65B05DF804FB08B54FF48060FFF75C
:1021A00017FD4FF08040FFF71FFD044BC3F8200AD6
:1021B00003F58053C3F8200208BD00BF008002561B
:1021C00000BEFEE708B502680C4B9A4215D14FF4E9
:1021D000801060220A4BC3F8200A03F58053C3F82D
:1021E0002002FFF701FD074B83F8412302229A608A
:1021F000502283F8422304229A6008BD004003580D
:102200000080025600E100E0027D436802B11B68D5
:10221000806818447047036810B5002BB8BF0024CD
:102220000A68B8BF04600C68002CBCBF00240C60B6
:102230000468B4F5487F24BF40F21F3404600C6882
:10224000B4F5F07F24BF40F2DF140C6000689842C0
:1022500004D10868801A18BF012010BD0120FCE7D6
:1022600010B5094C4FF0FF31206819F02DFB012803
:1022700006D040F20471054B054A06481CF094FA5A
:1022800001F0B8FDEEE700BF509E0F34105102344C
:1022900091FF02341E51023410B54FF0FF31044655
:1022A000406D19F011FB012806D040F2C6610D4BBC
:1022B0000D4A0E481CF078FAD4F8C430606DB3FAB9
:1022C00083F35B09C4F8C43000231A46194619F099
:1022D00057F9012804D040F2C961024B024AE8E7ED
:1022E00010BD00BF1051023469FF02341E51023488
:1022F00010B54FF0FF310446406D19F0E5FA0128A2
:1023000006D040F2B7610D4B0D4A0E481CF04CFA56
:10231000D4F8C030606DB3FA83F35B09C4F8C03001
:1023200000231A46194619F02BF9012804D040F26F
:10233000BA61024B024AE8E710BD00BF10510234F7
:102340004FFF02341E51023438B5044600780EF0B7
:10235000D7FF63680546834204D018B1A3680BB168
:10236000E0689847656038BD08B540F2ED11024B52
:10237000024A03481CF018FA2851023443FF023481
:102380001E5102342DE9F04F2DED0A8B90ED0BCA52
:10239000B7EECCCAC3B0B0EE4C0B044690ED07AA22
:1023A00090ED09BA1EF0B0FBB0EE408BB0EE4C0BD6
:1023B0001FF096F994ED0A9A94ED086A2DAD18A8CD
:1023C0000DF10C0CB7EECAAAB7EECBBAB7EEC99AAC
:1023D000B7EEC66AAE4606466746B6EE005B40F20A
:1023E0001D3940F2DD18152194ED0C3A94ED0D4A9B
:1023F000B7EEC33AB7EEC44A33EE453BB0EE4A7B84
:1024000023EE0B3B34EE454BA3EE087B24EE094B49
:10241000A4EE407BF7EEC72BB0EE467BA3EE007B2D
:10242000A8EE047BFDEEE24A14EE90AAB7EEC77B5D
:102430005246FDEEC77A022AB8BF022217EE903A42
:102440004A45A8BF4A46022B9B46B8BF4FF0020B35
:10245000C345A8BFC346B3EB0B0318BF0123924586
:1024600018BF012301394CF8042B40F804BB4EF887
:10247000043B04F10804B7D1002455F8043B43B9E8
:102480006FF0FF03022256F8241057F824000EF0D4
:1024900047FE0134152CF0D100254FF07F46124C39
:1024A000206842AB03EB800050F8543C8BB9626863
:1024B00042AB03EB820252F8543C53B9009652F8F7
:1024C000A83C50F8A81C52F8FC2C50F8FC0C0EF05C
:1024D000B3FC0135152D04F10804E1D143B0BDEC86
:1024E0000A8BBDE8F08F00BF000003342DE9F047F0
:1024F0002DED028B90B001F003FA044601F0FCF9D7
:102500000146FFF781FED1E9022302909B1A204683
:102510000393FFF779FED4E9022304909B1A08A8DD
:10252000059313F0FDFD01F05FFB01F059FB01F095
:1025300073FC864C05460021206819F0C5F930B9B6
:1025400040F24B61824B834A83481CF02DF9D4F84A
:10255000B43004EB8302D2F8AC00D4F8A8200133E5
:1025600093FBF2F102FB1133C4F8B4300028E7D03A
:102570009FED7A8A002101F029FC18EE108ADFED28
:10258000788ADFF80C92DFF80CA201F045FC431BBF
:1025900007EE903AB2EE0E7AF8EE677AE8EE077A36
:1025A00007464FF0FF31606D27EEA88A19F08CF9CD
:1025B0000128054604D040F27D216A4B6A4AC3E7F0
:1025C000D4F8B83004EB8302D2F8AC60D4F8A82079
:1025D000013393FBF2F102FB1133C4F8B83026B992
:1025E00040F25961614B5B4AAEE7D9F8003001F027
:1025F00013FC31460020039A01F06EF920B140F23D
:1026000047415B4B5B4A9FE7504612F06DFD059AD0
:10261000002A1BDD049B03F01F011144BFF34F8F01
:10262000DA435E18324420395209203102F1010E9A
:10263000D8BFAE464EF001E04F48C0F85C322033C0
:102640000FF005C8BFF34F8FBFF36F8F049B0121BD
:10265000019306AA08AB01A813F076FD20B14FF450
:102660008A61464B434A6FE7DDE90631884203F150
:1026700014024FF0180501F1010302DCB1F1004F23
:1026800000D10123013B11D101F0C6FB3C4812F0FF
:102690002BFD002320681A46194618F071FF012807
:1026A00024D040F26F212F4B364A4DE705FB00F155
:1026B0005158022918D14FF0070E00239FED327AAE
:1026C0004EF001E0D3ED007A67EE877AC3ED007A31
:1026D000D3ED017A67EE877A083343ED017A0FF084
:1026E0000FC800231B68FFDE0130CBE7274D4FF0FA
:1026F000FF31686D19F0E8F8012804D040F27961E3
:10270000184B144A20E70026686D3346324631469E
:1027100085ED2A8AC5F8AC60C5F8B460C5F8C86014
:10272000C5F8D080C5F8D46018F02AFF012804D07D
:1027300040F289610B4B074A06E728683346324668
:10274000314618F01DFF3D461FE700BF74FF0F34F0
:102750003E51023407FF02341E51023400000000D3
:102760000000803D10510234F6FE02344A5102341A
:1027700059510234E4FE023400ED00E07851023495
:10278000CC720F34D4FE0234000048442C730F3452
:1027900030001034FC720F342DE9F0472DED048B1E
:1027A000C36905460C4694B0002B00F0FD80D1EDC6
:1027B000027AFDEEE77A17EE900AD1ED037AFDEE8C
:1027C000E77A17EE901AD4ED057AFDEEE77A17EE68
:1027D000903AD4ED047AFDEEE77A17EE902A0132B2
:1027E00002EBD2720133521003EBD37352425B10EF
:1027F00086185B42801A0296CE18C91A04900C9172
:1028000002A803A90396FFF706FD0CA904A8FFF789
:1028100002FDDDE902014FF0FF23049A00930C9BB7
:10282000121A5B1A0EF066FB0026DFF8A081664FD5
:10283000A26936F0020302EBC602D2ED007AFDEE89
:10284000E77ACDED027AD2ED017A0CBFC146B946E6
:10285000FDEEE77A03A902A8CDED037A0136FFF772
:10286000DAFCDDE902014B4602220EF059FC072E8C
:10287000DED1F6EE006AD4ED097A94ED0A7A94ED91
:102880000B9A67EEE67A27EE667AB7EEC99AB1EE52
:10289000676AF1EE476AB0EE490BCDED047A8DED33
:1028A000057A8DED066A8DED077A8DED086ACDED1E
:1028B000096ACDED0A7ACDED0B6A1EF025F9B0EE6E
:1028C000408BB0EE490B1EF00BFF4FF0040E0DF1E4
:1028D00010094B464EF001E093ED017A93ED005A5A
:1028E000B7EEC77AB7EEC55A27EE406B28EE077BE6
:1028F000A8EE056BA5EE007BB7EEC66BB7EEC77B07
:1029000083ED006A83ED017A08330FF01BC84FF0A6
:10291000040ED4ED076A94ED087A4EF001E004ABA2
:10292000D3ED007A77EEA67AC3ED007AD3ED017A83
:1029300077EE877A083343ED017A0FF00FC800264F
:102940000CAFB846B246D9ED007AFDEEE77AC8ED95
:10295000007AD9ED017AFDEEE77A414617EE903A1A
:10296000404641F8043FFFF756FC0AF1010ABAF16C
:10297000040F46EA000609F1080908F10808E2D147
:1029800096B9DFF84480013614AB06F00302CDF8A7
:10299000008003EBC202796852E9082357F8080B5C
:1029A0000EF04AFA042EEED1AB693BB1204614B0CA
:1029B000BDEC048BBDE8F047FFF7E4BC14B0BDEC00
:1029C000048BBDE8F08700BF0000FFFFFF0000FFA1
:1029D0002DE9F04F2DED048B0021ADF5905D0846FB
:1029E00085B00EF02FFC014608B1FFF7BDFC9A4AF6
:1029F00003AB9A4FC3E9010218700120DF600EF0AB
:102A000021FC0028F1D1012204469FED919B8DF815
:102A10001C20934A07ABC3E90102DFF88C92DF6008
:102A20004FF0FF31386818F04FFF012806D040F210
:102A3000E4618C4B8C4A8D481BF0B6FE03A8FFF76F
:102A400083FC07A8FFF780FC4FF0FF31786D18F08A
:102A50003BFF012804D040F2EA61824B824AEAE758
:102A60000BAE41F2E412824930461BF0C9FE00234E
:102A7000786D1A46194618F083FD0128054604D0E2
:102A800040F2ED61774B784AD5E7746101F0C4F903
:102A9000824672B6DFF81482D9F8003075482946AC
:102AA00000FB03801AF006FD834620B140F29B61D3
:102AB000714B724ABFE762B6714C4FF4F0734FF43A
:102AC00048720146009004F1380504F120060EF02A
:102AD000D9FA0FCE0FC596E8030085E8030001F090
:102AE000EFF90546C4E9080B19F03CFE2D1A63EB1B
:102AF0000303C4E90A5301F08FF9A36C226E20632B
:102B00009B1AB3F57A7F06D3902204F1380104F1C1
:102B100050001BF0E3F9D4E91C23D4E91601801A14
:102B200061EB0301FEF76CFFD4E91A3241EC180B9C
:102B3000D4E91401C01A61EB0201FEF761FF28EE2F
:102B4000098B41EC160B88EE067B0BACB7EEC78BFE
:102B5000D4ED007A9FED4B7AC7EE278A0DF072FF15
:102B6000002102220846484B00F00AFB0DF06AFFE4
:102B7000B7EEC87AC18802228DED007B434B00205E
:102B800000F0FEFA0DF05EFFC1880222404B01EB1F
:102B90004101002000F0F4FA0DF054FF0222C18838
:102BA00063689140002000933A4B00F0E9FA0DF081
:102BB00049FFE368C188022201EB810100200093F4
:102BC000354B00F0DDFA0DF03DFFB7EEE87AC18835
:102BD000324B8DED007B02220020C1EBC10100F0E1
:102BE000CFFA236A002B05DDE36A1BB1204616A944
:102BF000FFF7D2FDD9F800301E4A02FB0383BFF372
:102C00004F8F45F6C05E4EF001E0254AC2F86832AB
:102C100020330FF005C8BFF34F8FBFF36F8F72B62D
:102C200001201AF051FC20B140F2A961124B1D4A5B
:102C300001E762B6D9F80030C3F10103C9F80030EA
:102C400001F0EAF8A0EB0A04EAE600BFAFF3008067
:102C50000000000000005940F12200342C730F34B2
:102C6000992200341051023483FF02341E51023481
:102C7000D4730F3400B80B009A5102342CFF023485
:102C80003800103400007A44A8510234B1510234A3
:102C9000BB510234C6510234D0510234DA510234ED
:102CA00000ED00E015FF02341801103400181591F2
:102CB0002DE9F043854D93B085481BF07DFBD5F899
:102CC000FC30844C43F0807300212046824AC5F8D2
:102CD000FC301BF01DF9BFF34F8FDFF880E20023BB
:102CE0004EF001E0E218C5F8702220330FF007C063
:102CF000BFF34F8FBFF36F8F784D00212846784A7E
:102D00001BF006F9BFF34F8F4BF6803E00234EF0C9
:102D100001E06E4AE918C2F8701220330FF007C0C4
:102D2000BFF34F8FBFF36F8F0320002101260227CF
:102D30004FF01E098DF830006A486B4A0068CDE9F3
:102D40000A1203FB0044694BCDE90D411193684B16
:102D500006A908930AAB049304A80EAB0F928DF852
:102D6000406006928DF81C70ADF8249005931AF01F
:102D700045FB044630B140F22C715E4B5E4A5F4821
:102D80001BF012FD30460DF027FE20460EF0B6F97E
:102D9000DFF8CC815A480DF04DFE4FF0FF300DF0BA
:102DA00041FE42463946384618F0CAFBA8F10405F0
:102DB00048F8040C58B12146384608F1540218F07E
:102DC000BFFB686540B958F8040C18F07DFE40F26E
:102DD0004E71484B4B4AD2E74B4BE0222146C5F897
:102DE000AC304A4803F59623C5E92C34C5F8A870E1
:102DF000C5F8B8401BF08CF800F064FF214630465F
:102E0000434A18F09DFB434B186020B940F25771BC
:102E1000414B3C4AB3E7414D21462A46304618F023
:102E20008FFB2F1F45F8040C20B940F259713C4B21
:102E3000344AA4E7304605F1540118F043FC7865A4
:102E400020B940F25B71374B2E4A98E72146214862
:102E500000F0A8FF344B4FF400620293334B344927
:102E600001931D2333480093234618F0E3FE20B955
:102E700040F26371304B234A81E7304B4FF40062DC
:102E800002932F4B2F4901931A232F480093234677
:102E900018F0D0FE20B940F26671274B194A6EE750
:102EA0002A4B4FF400620293294B2A49CDE9009343
:102EB0002948234618F0BEFE20B940F269711E4B26
:102EC000104A5CE713B0BDE8F08300BF00ED00E0FE
:102ED000E551023400882C9100C05D000018159166
:102EE00000701700B8850F342003E00100D0209156
:102EF00000600991F6510234C7FE02341E510234BB
:102F0000C4850F34A0FF0234000000913800103453
:102F1000009E0F34509E0F34FF51023430730F3433
:102F2000075202341352023414FF0F3414DF0F34EB
:102F30001D520234ED24003404510234B4DE0F3447
:102F4000B4BE0F3420520234D129003454BE0F34A1
:102F5000549E0F34235202346122003400EE0200EA
:102F600078FF0F3401282DE9F347064650D1514F21
:102F7000DFF870813D68D8F8004001356B4203F0FE
:102F8000030304F1010405F0030555EA43B5634268
:102F900003F00303DFF850A1DFF8509104F00304BD
:102FA00054EA43B413F0DAFA314600220AFB0493E0
:102FB00003F09AFB014630B140F2BB213E4B3F4A41
:102FC0003F481BF0F1FB0AFB05901AF073FA20B1A1
:102FD00040F2A3213B4B3C4AF2E71AF075FA20B1CC
:102FE00040F2A521374B384AEAE71AF077FA20B1C8
:102FF0004FF42A71334B344AE2E7344A3D60136898
:10300000C8F8004001331360002002B0BDE8F0872B
:103010000228F9D12E4C0021206818F055FC002818
:10302000F2D0D4F8B42004EB8203D3F8AC50D4F837
:10303000A830013292FBF3F103FB1122C4F8B42053
:10304000002DE1D013F08AFA2B460022314603F01E
:103050004BFB20B140F2D321174B1E4AB0E71B4B6C
:103060001D4A1B680190013B136019F067FE03467F
:10307000A0B1606D01A918F03BFB012804D04FF40A
:103080002471164B164A9BE7019B002BBCD04FF0D6
:10309000E0234FF08052C3F8042DB5E70246014605
:1030A000606D18F06DFA0128AED04FF425710B4B0E
:1030B0000B4A85E7B8850F349A510234ADFE0234CD
:1030C0001E510234F65102349DFE02343400103495
:1030D00074FF0F347EFE023430001034105102347D
:1030E0006DFE02341C0110340070170000882C9112
:1030F000012807B510D100230193094B01A91868D5
:1031000018F0F6FA012807D1019B2BB14FF0E0230C
:103110004FF08052C3F8042D002003B05DF804FB8B
:10312000509E0F341FB5154B7C2101AA02A80293B3
:103130000CF064FB0346E0B9019A02F4C031B1F52A
:10314000C03F17D042F4C0327C2102A801920CF09B
:1031500071FB68B97C2101AA02A80CF04FFB30B9C1
:10316000019B03F4C033B3F5C03F03D0FEE7FEE795
:10317000FEE7FEE705B05DF804FB00BF00900056D7
:1031800008B4F3B504460D46164607AB094F53F88D
:10319000042B3021384601931CF008FC33463A4694
:1031A000294620460DF0FEFD02B0BDE8F04001B01A
:1031B000704700BF200110347047FEE7FEE7FEE7CE
:1031C000FEE708B513F0CAF9BDE8084001F012BEE9
:1031D00008B513F0C3F9BDE8084001F0D5BC000004
:1031E00001480DF053BB00BF609D0F3401480DF046
:1031F00060BB00BF609D0F340149024812F002BD60
:10320000E0722E3460392E340149024812F0FABCC3
:1032100080533234A03232340149024812F0F2BCF9
:10322000E0202E3400002E340149024812F0EABC9E
:10323000000D303400002E340149024812F0E2BC87
:10324000A0323234001A32340149024812F0DABC9A
:10325000404B3234A02530340149024812F0D2BC30
:10326000E0523134A03831340149024812F0CABC6E
:10327000006427340000273408B50549054812F0DA
:10328000C1FCBDE808400449044812F0BBBC00BFC3
:10329000C0682734006427340040263400B024344A
:1032A00008B50549054812F0ADFCBDE808400449E1
:1032B000044812F0A7BC00BF00D6343400A4343454
:1032C000C0522634004026340149024812F09ABC0C
:1032D00000A434340040343408B50549054812F0E0
:1032E00091FCBDE808400449044812F08BBC00BFC3
:1032F0000020313400002E340084133400BC12341A
:1033000008B50949094812F07DFC0949094812F03D
:1033100079FC0949094812F075FCBDE808400849E4
:10332000084812F06FBC00BF00902F3400002E340C
:103330000040343400B032340090283400C82734C0
:10334000C0B62634C052263437B50D4D0D4C294633
:10335000204612F057FC0021084610F01BF900230C
:103360000122CDE900320323074A1946074811F02C
:1033700015FA2946204603B0BDE8304012F06CBC77
:1033800080392E3400002E34E0000434500104341F
:1033900037B50D4D0D4C2946204612F033FC002167
:1033A000084610F0F7F8012304220221CDE900328B
:1033B0000748084A11F0F2F92946204603B0BDE853
:1033C000304012F049BC00BFA0253034600B3034CF
:1033D000ECFC03347CFC033437B50D4D0D4C294611
:1033E000204612F00FFC0021084610F0D3F8082305
:1033F00000220221CDE9003207480123074A11F0DB
:10340000CDF92946204603B0BDE8304012F024BC77
:10341000800B3034C0A22F345CFB0334ECFA03344D
:1034200037B50D4D0D4C2946204612F0EBFB00211F
:10343000084610F0AFF8082309220221CDE9003236
:1034400007480123074A11F0A9F92946204603B08D
:10345000BDE8304012F000BCC0A22F3400002E3472
:10346000CCF903345CF9033437B50D4D0D4C2946C6
:10347000204612F0C7FB0021084610F08BF8082305
:1034800000220221CDE9003207480123074A11F04A
:1034900085F92946204603B0BDE8304012F0DCBB78
:1034A000008A293400F428343CF80334CCF7033480
:1034B00037B50D4D0D4C2946204612F0A3FB0021D7
:1034C000084610F067F8062300220221CDE90032F9
:1034D00007480123074A11F061F92946204603B045
:1034E000BDE8304012F0B8BB002C2834000027346F
:1034F000ACF603343CF6033437B50D4D0D4C29467C
:10350000204612F07FFB0021084610F043F8042308
:1035100000220221CDE9003207480123074A11F0B9
:103520003DF92946204603B0BDE8304012F094BB77
:1035300000B0323400002E341CF50334ACF40334F4
:1035400037B50D4D0D4C2946204612F05BFB00218E
:10355000084610F01FF8012300220221CDE90023C4
:103560000748084A11F01AF92946204603B0BDE879
:10357000304012F071BB00BF0058303400002E34D0
:103580005CF20334ECF1033430B5124D124C87B0C9
:103590002946204612F036FB002108460FF0FAFFBC
:1035A000062307220821CDE903320423CDE90131A6
:1035B00040F6340341F268020093084902230848A8
:1035C00011F036FB2946204607B0BDE8304012F026
:1035D00043BB00BF20433234A0323234FCFF0334FB
:1035E0003400043430B5124D124C87B029462046C1
:1035F00012F008FB002108460FF0CCFF0323052240
:103600000821CDE903320423CDE9013140F634032A
:1036100041F26802009308490223084811F008FBB0
:103620002946204607B0BDE8304012F015BB00BF68
:1036300040312E34C0202E3474FF0334ACFF0334E9
:1036400030B5114D114C87B02946204612F0DAFAF8
:10365000002108460FF09EFF032305220821CDE933
:1036600003324323CDE9013140F63403084A009385
:1036700008494023084811F0DBFA2946204607B0E4
:10368000BDE8304012F0E8BA000D303400002E34AE
:10369000000D020034FE03346CFE033430B5124DCD
:1036A000124C87B02946204612F0ACFA0021084699
:1036B0000FF070FF002302220821CDE903324323DB
:1036C000CDE9013140F6340341F69C0200930849EC
:1036D0000323084811F0ACFA2946204607B0BDE89C
:1036E000304012F0B9BA00BFA0253034000D30349C
:1036F000ACFD0334E4FD033470B5D2B04FF4A472D2
:10370000002168461AF004FC48F2403409232B4992
:103710008DF80030CDE905140123CDE9101409918D
:10372000149120210422CDE91813CDE91A3140F675
:10373000340580211020CDE90125CDE90C25CDE906
:103740001C12CDE91E211E4D1E4C1F4E1F4ACDE9F5
:103750000303CDE90703CDE90E03CDE912038DF88C
:103760002C308DF8583017930A96159520942B928B
:1037700020323692103A419220324C921A22144949
:103780006846CDE94E126FF01E028DF88430CDE907
:103790005023269331938DF8DC303C9347938DF87A
:1037A000343112F019F928460A4912F055FA204628
:1037B000094912F051FA52B070BD00BF000D02006D
:1037C000000D3034A032323400002E34400D6670CB
:1037D00080537167001A32342033323430B5104DC3
:1037E000104C85B02946204612F00CFA00210846FC
:1037F0000FF0D0FE01230422CDE902320A4B0B4A1E
:1038000001930B4B0B4900930B480C4B10F0DCFE63
:103810002946204605B0BDE8304012F01DBA00BF71
:10382000001A3234000D3034E4FE0334ECFE03346D
:10383000E8FE0334B4FE033424FF0334D4FE03341F
:1038400030B50E4D0E4C85B02946204612F0DAF9FF
:10385000002108460FF09EFE022303220121CDE93C
:1038600001320093074A084810F0A0FE294620467E
:1038700005B0BDE8304012F0EFB900BF00202A3497
:103880000000273454F30334C4F3033430B50E4D31
:103890000E4C85B02946204612F0B4F900210846A6
:1038A0000FF078FE04230522CDE901320223012125
:1038B000074A0093074810F079FE2946204605B0D4
:1038C000BDE8304012F0C8B900E831340058303457
:1038D00094F0033404F10334032070470020704750
:1038E0000320704700207047012070470120704777
:1038F000004870473002043400487047D4EF033466
:10390000004870473CEF033400487047C02403343C
:103910000149024812F076B98005203400002034B5
:1039200008B50549054812F06DF9BDE8084004499D
:10393000044812F067B900BF400220340000203470
:1039400060142034401420340149024812F05AB95E
:10395000400B2034000920340149024812F052B9CA
:1039600000682134002021340149024812F04AB98C
:1039700000D02234004022340149024812F042B9FA
:1039800000402234002021340149024812F03AB9A3
:1039900000B021340020213430B50E4D0E4C85B0DE
:1039A0002946204612F02EF9002108460FF0F2FDBC
:1039B00001210023CDE901310323084A009308487F
:1039C00010F0F4FC2946204605B0BDE8304012F066
:1039D00043B900BFC0072034800520346C770C3415
:1039E000DC770C3430B50E4D0E4C85B029462046A0
:1039F00012F008F9002108460FF0CCFD0323022243
:103A00000121CDE901230093074A084810F0CEFCBC
:103A10002946204605B0BDE8304012F01DB900BF70
:103A200040142034001220343C760C34AC760C3434
:103A300030B5104D104C85B02946204612F0E2F802
:103A4000002108460FF0A6FD09230022CDE902322D
:103A50000A4B0B4A01930B4B0B4900930B480C4B41
:103A600010F0B2FD2946204605B0BDE8304012F006
:103A7000F3B800BF004820340000203474750C34C3
:103A80007C750C3478750C3444750C34B4750C3476
:103A900064750C3430B5104D104C85B02946204665
:103AA00012F0B0F8002108460FF074FD0623012241
:103AB000CDE902320A4B0B4A01930B4B0B490093A1
:103AC0000B480C4B10F080FD2946204605B0BDE8A0
:103AD000304012F0C1B800BF009020340000203404
:103AE000BC740C34C4740C34C0740C348C740C343A
:103AF000FC740C34AC740C3430B5104D104C85B0E3
:103B00002946204612F07EF8002108460FF042FDBB
:103B100004230522CDE902320A4B0B4A01930B4BD9
:103B20000B4900930B480C4B10F04EFD29462046E4
:103B300005B0BDE8304012F08FB800BF00602334FC
:103B40000040223404740C340C740C3408740C34AB
:103B5000D4730C3444740C34F4730C3430B5104DFD
:103B6000104C85B02946204612F04CF8002108463A
:103B70000FF010FD00230322CDE902320A4B0B4A5D
:103B800001930B4B0B4900930B480C4B10F01CFDA1
:103B90002946204605B0BDE8304012F05DB800BFB0
:103BA0000040223400B021344C730C3454730C3474
:103BB00050730C341C730C348C730C343C730C3405
:103BC0000320704700207047032070470020704793
:103BD0000120704701207047004870474C780C3432
:103BE000004870479C720C3400487047CC710C340C
:103BF00000487047844C0C3407EE901AF8EEE76AE0
:103C000007EE902A9FED286AB8EEE77ADFED275A93
:103C100086EE865AC7EE257AB4EE675AF1EE10FAB0
:103C200048BFF0EE457AB7EE005AF4EEC57AF1EEF1
:103C300010FA08B505DA29211D4B1E4A1E481AF054
:103C4000B3FD9FED1E5AF4EEC57AF1EE10FA03D4DF
:103C50002A211B4B174AF1E727EE866A67EEA57A01
:103C6000F4EEC66AF1EE10FAB4EEE77ACCBFFCEEE1
:103C7000C66AFCEEE66AF1EE10FA16EE903ACCBF98
:103C8000BCEEE77ABCEEC77A0131C91A17EE103ADA
:103C90000132D21A49085208C0ED006A80ED017A5B
:103CA0008160C26008BD00BF000048440000F043CE
:103CB00004D30234BFCB0E340FD302340000804251
:103CC0001DD3023470B500231E22022492B001A835
:103CD000CDE90133CDE903230593069412F088FD65
:103CE00028B18B21284B294A29481AF05DFD4FF451
:103CF00048714FF4F0730125CDE90713DDE9011296
:103D000004230326CDE90B500EA809940A930D96BF
:103D1000FFF772FF6A46284607A912F023FC18B184
:103D20004F211C4B1C4ADFE70A9A079B5343009A1A
:103D3000934203D05021194B174AD5E74FF4A07294
:103D4000C023CDE90906CDE90723DDE90112CDE95C
:103D50000B500EA80D96FFF74FFF6A46204607A9A5
:103D600012F000FC18B175210A4B0D4ABCE70A9A03
:103D7000079B5343009A934203D07621074B084A8E
:103D8000B2E712B070BD00BF28D30234E9CB0E34C5
:103D90000FD302349A510234D2CB0E343ED30234C4
:103DA000ADCB0E340A4608B50146012012F09CFC4A
:103DB00028B19C21024B034A03481AF0F5FC08BDC8
:103DC00028D3023497CB0E340FD302340A4608B5F9
:103DD0000146022012F088FC28B1A921024B034AB7
:103DE00003481AF0E1FC08BD28D3023486CB0E3418
:103DF0000FD3023408B512F051FD28B1B721034B9F
:103E0000034A04481AF0D0FC08BD00BF28D302348E
:103E100078CB0E340FD3023418F0AEB808B5EFF3F8
:103E200005832BB12721044B044A05481AF0BCFC3A
:103E3000BDE8084018F002BAE7DF0234FECB0E34CA
:103E40007CD3023400207047042213B5154B164C66
:103E5000C3F8642AD3F864320193019B134B2360A7
:103E60004FF0FF33E36006F00DF8114BB0FBF3F0B9
:103E700000230138606020462361A3600CF0B6FB8C
:103E800028B13E210B4B0C4A0C481AF08DFC204601
:103E90000CF012FA18B14121064B074AF4E702B0C0
:103EA00010BD00BF008002561014103400080050EE
:103EB000A08601009A510234F2CB0E347CD3023436
:103EC000014B1B68586A704710141034034B036091
:103ED000034B0B604FF4806313607047B0131034D2
:103EE000B0031034034B0360034B0B60802313605B
:103EF000704700BF5003103450011034444B454A02
:103F000070B501209A60022500224349434E01F515
:103F10008054C1F8180AC4F81802C4F85802C3F84B
:103F2000D820C3F8DC20C3F8E020C3F8D800C3F8D9
:103F3000DC20C3F8E020C3F8D8500325C3F8DC2008
:103F4000C3F8E020C3F8D8500425C3F8DC20C3F838
:103F5000E020C3F8D8500525C3F8DC20C3F8E020E2
:103F6000C3F8D8500625C3F8DC20C3F8E020C3F816
:103F7000D8500725C3F8DC20C3F8E020C3F8D85098
:103F8000C3F8DC20C3F8E020C1F8780AD1F8782221
:103F90009A683261224AD56B45F48055D563D56B5A
:103FA00045F01005D563D26BD1F8742242F400427B
:103FB000C1F87422D1F8782242F01002C1F87822B8
:103FC000D1F87822D1F8782222F01002C1F87822B4
:103FD0004FF44052C1F8202AC4F820224022C1F8F0
:103FE000240AC4F82402C4F86402C4F85C223269CA
:103FF000C4F87802D3F8882042F47002C3F888200D
:10400000084AD2F8883043F47003C2F8883070BD93
:1040100000ED00E0000400340080025600800056ED
:104020000048025600ED02E0774BF0B51A6A02F440
:104030004012B2F5001F00F0CC8006D862B99B6C2C
:10404000724AC3F3C113DA4003E0B2F5401F0BD04C
:1040500000226F4B1A60F0BD5B6C6E4A13F4007F58
:104060006D4B08BF1A46F4E7D3F8C42002F0405263
:10407000B2F1805F2BD0B2F1005F38D0002A45D179
:10408000D3F88020160102F0E04100F1A980D3F8B6
:104090008400D3F88830C2F30B2520F07F400C4613
:1040A000B4F1005FC3F3C266C2F30551C3F3026308
:1040B00079D000F29080002C3DD00024524A564F17
:1040C000526C12F4007F534A08BF3A4639E0D3F8E5
:1040D0009020150102F0E04100F18280D3F89400B5
:1040E000C2F30B25D3F8983020F07F40D7E7D3F800
:1040F000A020140102F0E04172D4D3F8A400C2F36E
:104100000B25D3F8A83020F07F40C8E7D3F8B020C3
:10411000100102F0E04163D4D3F8B400C2F30B25E0
:10412000D3F8B83020F07F40B9E70B460E4608467A
:104130000D464FF00064344A976C344AC7F3C117F8
:10414000FA403CBB07EE100AB8EEC76A07EE105AF9
:1041500007EE902ADFED316AB8EEC77AF8EEE77A1B
:10416000A6EE267A67EE877A07EE101AB8EEC77ABF
:10417000C7EE876A07EE906AB8EEE77A07EE903AE4
:10418000F8EEE77A27EE277AC6EE877AFCEEE77A32
:1041900017EE902A1C4BD3F8C430C3F30743013306
:1041A000B2FBF3F255E700241D4ACAE700234FF0A3
:1041B00000641E4618461D461946F5E70024194AB4
:1041C000BFE700234FF000641E4618461D461946FF
:1041D000F5E7134A3DE7B4F1405FEFD00022B1E7C5
:1041E000B1F1005FE2D009D800299ED000234FF042
:1041F00000641E4618461D4619465FE7B1F1405F50
:10420000DFD00022C6E700BF008002560090D00336
:10421000BC850F340024F40000093D000000803309
:10422000006CDC020080BB006DED81CF00B5FFF7B4
:10423000FBFE054B5DF804EB18689FEC100A9FE845
:104240000E90FDEC81CF7447BC850F34704710B5DC
:10425000032000F00DF8FFF7E7FE0F20FFF7F2FD57
:10426000044618B9FFF7F2FF204610BD0124FBE712
:10427000C31E042B10B5044603D9E6210948FDF7F7
:104280009FFF09492302CA6803F4E06322F4E06255
:104290001204120C134343F0BF6343F40033CB60AA
:1042A00010BD00BF8FD3023400ED00E010F10C0F01
:1042B0002DE9F04105460C46174601DB031D03D1ED
:1042C000FF212648FDF77CFF254BDE68C6F302265A
:1042D000022E06D857B14FF481712048FDF770FFC8
:1042E00004E00123F21E9340BB42F4D90F2CC6F127
:1042F000070804D8012303FA08F3A34204D840F2C4
:1043000003111648FDF75CFFB8F1040F06F1040332
:1043100028BF4FF004084FF0FF32062BA6F103062A
:1043200098BF002602FA08F824EA0803B24027EAF8
:104330000207B340002D43EA0703ACBF05F1604517
:10434000084A4FEA0313DBB2ABBF05F5614505F040
:104350000F0585F800335355BDE8F0818FD3023443
:1043600000ED00E014ED00E0002808DB0123410926
:10437000054A00F01F00834042F82130704740F2A8
:1043800015110248FDF71CBF00E100E08FD3023495
:10439000024BD868C0F30220704700BF00ED00E078
:1043A00010F10C0FF8B504460D4617461E4601DB0A
:1043B000031D04D14FF4BC711948FDF701FFEB1E3A
:1043C000042B04D940F279111548FDF7F9FE002CB1
:1043D000ACBF04F16044134B05F00701C1F10702C3
:1043E000ABBF04F5614404F00F0494F800331B5D87
:1043F000081D042A28BF04220628A1F103014FF05A
:10440000FF3098BF00211B0900FA02F223FA01F4E1
:10441000884024EA020223EA00033A603360F8BDD0
:104420008FD3023414ED00E0F8B51446036871BB75
:10443000D3F8042422F4C01242EAC442C3F804248C
:10444000234B022C1A6838D0032C39D0012C3AD1D6
:1044500042F040021A60FFF7DFFC4FF400360746D7
:104460001B4DA640FFF7D8FCC01BB0F57A7F2DD8B6
:10447000D5F8903036EA0303F4D14FF48853002086
:10448000D5F88020A3401343C5F88030F8BD01293A
:10449000D3F8042806D122F4C01242EAC442C3F879
:1044A0000428CDE7520341BFD3F8042C22F4C012F4
:1044B00042EAC442C3F8042CC2E742F48062C9E76E
:1044C00042F48042C6E742F00402C3E70120DDE780
:1044D00000600058012930B54FF00205046810D182
:1044E0008571D4F800190B43C4F80039C4F8C42905
:1044F000D4F8F03343F4060343F02003C4F8F03358
:1045000030BD08444571D4F8001D0B43C4F8003D8C
:10451000C4F8C42DD4F8F03343F00643ECE770B48C
:1045200015461E4699B9022301684371D1F800254A
:104530003243C1F80025C1F8C455D1F8F03370BC3E
:1045400043F4064343F02003C1F8F033704770BCD6
:10455000FFF7C0BF022383710368D3F8042842F039
:104560000042C3F80428D3F8002942F00802C3F837
:104570000029704769B90368D3F8042442F0004267
:10458000C3F80424D3F8002542F00802C3F800253C
:104590007047012901D1FFF7DDBF0368D3F8042C70
:1045A00042F00042C3F8042CD3F8002D42F0080278
:1045B000C3F8002D70470000184B10B55A69C9B2F6
:1045C00042F480325A611A6942F001021A615A6952
:1045D00042F480325A6100221A615A615C695C615E
:1045E0001C6944F001041C611A615C6944F4803464
:1045F0005C611C6944F001041C615C69044344F47F
:1046000080345C611A615A615869014359611969C2
:1046100041F0010119611A6110BD00BF007000581E
:1046200010B50446D8B103680E4A934208D002F18F
:104630007042934204D04FF4A7710B48FDF7C0FDC0
:10464000237913B9204612F055F903230020237172
:1046500001236071A071E071A060237110BD012081
:10466000FCE700BF00200058D7D302342DE9F04109
:104670000546FEB00C464FF4FC72684654491AF0E9
:10468000BFF81DB901207EB0BDE8F081002CF9D043
:104690002B68504A934208D002F17042934204D0F2
:1046A00040F28B214C48FDF78BFD2368B3F5807FEA
:1046B00007D0B3F5007F04D04FF423714648FDF7CF
:1046C0007FFD6368013B012B04D940F28D214248F4
:1046D000FDF776FDA3683E2B04D940F28E213E48BB
:1046E000FDF76EFD3D4B1A6822F001021A60616809
:1046F00001291AD1226842F404121A671A6842F09A
:1047000001021A60D3F8802042F0B04242F4041251
:10471000C3F880202268B2F5807FD3F8842054D17A
:10472000012908D142F01F0207E00229AAD122681C
:1047300042F49012E1E742F4F8520026284DC3F803
:1047400084202B68254F23F002032B607E602B69A9
:10475000012043F001032B61FFF760FB2E61D4F8C9
:104760000880AB685DF8382023F4FE4343EA022357
:1047700043F02803AB60382108201602FFF71CFF26
:104780001121E420FFF718FF0DEBC803D3F80480D4
:10479000E3204FEA182146F48036FFF70DFF46F07C
:1047A0002806E3205FFA88F1FFF706FFAE60236872
:1047B0000020B3F5807F0CBF07230F237B602B689D
:1047C00043F002032B6068605DE742F4F852A9E70A
:1047D000C04E023400200058D7D302340060005885
:1047E0000070005870B50D461446064608B9012001
:1047F00070BD002AFBD00368504A934208D002F1F2
:104800007042934204D04FF444714D48FDF7D8FCF8
:10481000022D04D940F211314948FDF7D1FC23683B
:1048200033F4403304D040F212314548FDF7C8FC60
:10483000022D23681CD033F4403304D040F21631EB
:104840003F48FDF7BDFC2368B3F5803F02D0B3F5C8
:10485000003F0DD1A368183B152B04D8394A22FA22
:1048600003F3DA0704D440F21B313548FDF7A8FC06
:104870002368B3F5403F0DD06368183B152B04D86F
:10488000304A22FA03F3DB0704D440F221312C48EA
:10489000FDF796FC3379013B012B2ED82268B2F547
:1048A000403F45D0B2F5003F2BD1002D9FD113469C
:1048B0006168B2F5803F43EA0103316802D0B2F586
:1048C000003F04D1022D2BD0A26843EA0223EDB9A8
:1048D00031681D4AD1F8040402401A43C1F8042487
:1048E0003368D3F8042122F48042C3F80421D3F8BA
:1048F000042242F00102C3F8042202230020337193
:1049000076E7022D14BF13460023D1E7012D07D10E
:10491000D1F804080C4A02401A43C1F80428DFE722
:10492000D1F8042C22F03F021343C1F8043CD7E72E
:10493000002D7FF45CAF1346CAE700BF002000588B
:10494000D7D30234C31F3C00C0C0FCFF032970B59D
:1049500006460D46144604D94FF472711548FDF70A
:104960002FFC062C04D940F2C9311248FDF728FC6F
:10497000F6B1032D08D8DFE805F002090F150E4B3C
:10498000240244F001041C61002070BD0A4B240283
:1049900044F001041C62F7E7074B240244F00104D1
:1049A0001C63F1E7044B240244F001041C64EBE7B0
:1049B0000120EAE7D7D3023400600058F8B50D466D
:1049C0001446064608B90120F8BD002AFBD003684A
:1049D000464A934208D002F17042934204D040F21A
:1049E00002414348FDF7ECFB022D04D940F203419C
:1049F0003F48FDF7E5FB2368032B04D940F204414F
:104A00003B48FDF7DDFBBDB9711948793379C0B278
:104A1000022BDAB2D7D110F0FB00D4D14A7133683F
:104A2000276815BBD3F8002522F003023A43C3F8E8
:104A3000002501234B71C7E7A368092B04D940F275
:104A400007412B48FDF7BCFB63681A0702D1B3F599
:104A5000004F04D34FF481612548FDF7B1FB022DCF
:104A6000D2D1A368062BCFD9ADE7012DD4E90146F9
:104A700026D1D3F800291F4D22F003023A43C3F890
:104A80000029D3F8C02922F00F023243C3F8C0290D
:104A9000D3F8CC292A402243C3F8CC29F21F012A9B
:104AA00006D8D3F8DC292A402243C3F8DC29C0E722
:104AB000092EBED1D3F8DC292A4042EA5402F4E799
:104AC000D3F8002D22F003023A43C3F8002DD3F8A7
:104AD000C02D22F00F023243C3F8C02DD3F8CC2DE5
:104AE0006FF30E022243C3F8CC2DA2E7002000583A
:104AF000D7D302340080FFFF2DE9F041022904469C
:104B00000D4616461F46DDF8188004D94FF4C261E1
:104B10001A48FDF755FB032E04D940F211611748DE
:104B2000FDF74EFB38F0040304D040F21261134845
:104B3000FDF746FB1CB901263046BDE8F0813A0777
:104B4000F9D123686219D3F804325279012AF2D1DB
:104B5000DB07F0D5324629462046FFF765FC0646BE
:104B60000028E8D12946204643463A46FFF7D7FCBD
:104B700029462046FFF7FEFCDEE700BFD7D302340C
:104B80007047704770477047036870B5D3F8F86393
:104B900004467204D3F8F05312D5690410D5D3F843
:104BA000F023002122F48042C3F8F023826842F00F
:104BB000040282604FF48042C3F8FC23FFF7E1FF58
:104BC00072050AD56B0508D54FF480622368002171
:104BD0002046C3F8FC2311F06DFEB00516D5A905DB
:104BE00014D52368D3F80025520707D5D3F8F0234E
:104BF00022F40642C3F8F023012262714FF40072DE
:104C000000212046C3F8FC2311F064FEF3050AD509
:104C1000E80508D54FF48072236800212046C3F8C8
:104C2000FC23FFF7ADFF310416D52A0414D5236801
:104C30000021D3F8F023204622F40042C3F8F023E9
:104C4000A26842F00802A2604FF40042C3F8FC23BD
:104C500004236371FFF796FFF3030AD5E80308D531
:104C60004FF48032236801212046C3F8FC23FFF76C
:104C700087FF71030AD56A0308D54FF480222368A1
:104C800001212046C3F8FC2311F014FEB30316D50E
:104C9000A80314D52368D3F80029510707D5D3F802
:104CA000F02322F40602C3F8F0230122A2714FF48C
:104CB000003201212046C3F8FC2311F00BFE320222
:104CC00016D52B0214D523680121D3F8F0232046F2
:104CD00022F40002C3F8F023A26842F01002A2609E
:104CE0004FF40002C3F8FC230423A371FFF74AFF2B
:104CF000F0010AD5E90108D54FF08072236802213E
:104D00002046C3F8FC23FFF73BFF72010AD56B0175
:104D100008D54FF08062236802212046C3F8FC23A7
:104D200011F0C8FDB00116D5A90114D52368D3F838
:104D3000002D520707D5D3F8F02322F00642C3F81E
:104D4000F0230122E2714FF0007202212046C3F8E5
:104D5000FC2311F0BFFD002E16DA002D14DA2368B3
:104D60000221D3F8F023204622F00042C3F8F023BA
:104D7000A26842F02002A2604FF00042C3F8FC2378
:104D80000423E371FFF7FEFE700614D5690612D501
:104D900023682046D3F8F02322F04002C3F8F02322
:104DA000A26842F00202A2604022C3F8FC2304235E
:104DB0002371FFF7E8FEB20614D5AB0612D52368BF
:104DC0002046D3F8F02322F02002C3F8F023A26893
:104DD00042F00102A2602022C3F8FC2304232371C5
:104DE000FFF7D1FE70BD704770477047704770473E
:104DF00070477047B54B2DE9F041D3F890600446F9
:104E0000B202D3F89480D3F88050D3F884700DD5D3
:104E1000A9020BD5D3F8802022F40012C3F8802019
:104E20004FF40012C3F80021FFF7DEFF320715D55B
:104E30002B0713D523680321D3F80035204613F040
:104E4000040FA24B1EBFD3F8802022F00802C3F843
:104E500080200822C3F80021FFF7CBFF700715D58B
:104E6000690713D523680221D3F80035204613F0D3
:104E7000040F964B1EBFD3F8802022F00402C3F823
:104E800080200422C3F80021FFF7B3FFB20715D535
:104E9000AB0713D523680121D3F80035204613F062
:104EA000040F8A4B1EBFD3F8802022F00202C3F801
:104EB00080200222C3F80021FFF79BFFF00715D5E1
:104EC000E90713D523680021D3F80035204613F0F5
:104ED000040F7E4B1EBFD3F8802022F00102C3F8DE
:104EE00080200122C3F80021FFF783FF320416D58A
:104EF0002B0414D523680321D3F80035204613F082
:104F0000040F724B1EBFD3F8802022F40042C3F876
:104F100080204FF40042C3F80021FFF767FF7004C0
:104F200016D5690414D523680221D3F8003520462C
:104F300013F0040F654B1EBFD3F8802022F480428B
:104F4000C3F880204FF48042C3F80021FFF74EFFE2
:104F5000B20416D5AB0414D523680121D3F800356B
:104F6000204613F0040F594B1EBFD3F8802022F4C3
:104F70000052C3F880204FF40052C3F80021FFF71D
:104F800035FFF00416D5E90414D523680021D3F8C1
:104F90000035204613F0040F4C4B1EBFD3F8802081
:104FA00022F48052C3F880204FF48052C3F80021CD
:104FB000FFF71CFF320516D52B0514D523680321F6
:104FC000D3F80035204613F0040F404B1EBFD3F832
:104FD000802022F40062C3F880204FF40062C3F8FE
:104FE0000021FFF704FF700516D5690514D5236865
:104FF0000221D3F80035204613F0040F334B1EBFB7
:10500000D3F8802022F48062C3F880204FF48062BD
:10501000C3F80021FFF7EBFEB20516D5AB0514D59A
:1050200023680121D3F80035204613F0040F274BE5
:105030001EBFD3F8802022F40072C3F880204FF402
:105040000072C3F80021FFF7D2FEF00516D5E9057E
:1050500014D523680021D3F80035204613F0040F3F
:105060001A4B1EBFD3F8802022F48072C3F8802030
:105070004FF48072C3F80021FFF7B9FE320615D550
:105080002B0613D523680321D3F80035204613F0EF
:10509000040F0E4B1EBFD3F8802022F08002C3F80D
:1050A00080208022C3F80021FFF7A2FE700619D5E8
:1050B000690617D523680221D3F80035204613F07E
:1050C000040F024B18BFD3F8802001E000600058A5
:1050D0001CBF22F04002C3F880204022C3F8002108
:1050E000FFF786FEB20615D5AB0613D5236801215E
:1050F000D3F80035204613F0040FB94B1EBFD3F888
:10510000802022F02002C3F880202022C3F8002152
:10511000FFF76EFEF00615D5E90613D523680021CA
:10512000D3F80035204613F0040FAD4B1EBFD3F863
:10513000802022F01002C3F880201022C3F8002142
:10514000FFF756FE720013D56B0011D5A44B204615
:10515000D3F8802022F08042C3F880204FF08042B4
:10516000C3F80021A36843F48073A360FFF70BFD2D
:10517000B00013D5A90011D5994B2046D3F8802053
:1051800022F00052C3F880204FF00052C3F80021F3
:10519000A36843F40073A360FFF7F5FCF20013D596
:1051A000EB0011D58E4B2046D3F8802022F08052A0
:1051B000C3F880204FF08052C3F80021A36843F465
:1051C0008063A360FFF7DFFC300113D5290111D5FF
:1051D000834B2046D3F8802022F00062C3F8802061
:1051E0004FF00062C3F80021A36843F40063A3609A
:1051F000FFF7C9FC720113D56B0111D5784B20461E
:10520000D3F8802022F08062C3F880204FF08062C3
:10521000C3F80021A36843F48053A360FFF7B3FCF5
:10522000B00113D5A90111D56D4B2046D3F88020CC
:1052300022F00072C3F880204FF00072C3F8002102
:10524000A36843F40053A360FFF79DFCF20113D55C
:10525000EB0111D5624B2046D3F8802022F08072FA
:10526000C3F880204FF08072C3F80021A36843F494
:105270008043A360FFF787FC18F0010F14D0F807F4
:1052800012D50121564B2046D3F8802022F001028E
:10529000C3F88020C3F80411A36843F40023A3607B
:1052A00004232371FFF79FFD18F0020F15D0B907F3
:1052B00013D54B4B0121D3F88020204622F0020267
:1052C000C3F880200222C3F80421A36843F480239A
:1052D000A36004232371FFF786FD18F0040F13D099
:1052E0007A0711D53E4B0121D3F88020204622F0C9
:1052F0000402C3F880200422C3F80421A36843F405
:105300000033A360FFF76FFD18F0080F13D03B07C1
:1053100011D5334B0121D3F88020204622F008021A
:10532000C3F880200822C3F80421A36843F4803323
:10533000A360FFF758FD18F0100F13D0F80611D531
:10534000274B0121D3F88020204622F01002C3F819
:1053500080201022C3F80421A36843F40043A36013
:10536000FFF741FD18F4807F16D0F90514D51C4BCA
:105370000221D3F88020204622F48072C3F88020D6
:105380004FF48072C3F80421A36843F40023A360A0
:1053900004232371FFF727FD18F4007F16D0BA0508
:1053A00014D50F4B0221D3F88020204622F400723E
:1053B000C3F880204FF40072C3F80421A36843F4BB
:1053C0008023A36004232371FFF70DFD18F4806F81
:1053D00017D07B0515D5024B0221D3F8802001E0C0
:1053E00000600058204622F48062C3F880204FF409
:1053F0008062C3F80421A36843F40033A360FFF77D
:10540000F2FC18F4006F14D0380512D51F4B02219E
:10541000D3F88020204622F40062C3F880204FF4A5
:105420000062C3F80421A36843F48033A360FFF74C
:10543000DAFC18F4805F14D0F90412D5134B022162
:10544000D3F88020204622F48052C3F880204FF405
:105450008052C3F80421A36843F40043A360FFF71C
:10546000C2FCF2030FD5EB030DD5084B2046D3F851
:10547000802022F48032C3F880204FF48032C3F8B9
:105480000021FFF7B2FCBDE8F08100BF00600058CA
:1054900070B50E461446054608B9012070BD002AB5
:1054A000FBD0022904D940F6EF614A48FCF788FE98
:1054B000236933F0804304D04FF46F614548FCF713
:1054C0007FFE6368B3F5805F04D340F6F161414825
:1054D000FCF776FE40F6FE72E368013B934204D986
:1054E00040F6F2613B48FCF76BFE40F6FE72A368A3
:1054F000013B934204D940F6F3613648FCF760FE65
:105500002368B3F5805F04D340F6F4613148FCF7BB
:1055100057FE2B79022BC0D13EBB2A682E4BD2F806
:1055200004110B40B3F5804FB7D0D4E90003D2F893
:10553000041543EA004301F0F0210B43C2F804359F
:10554000D2F80815D4E9033021F09F41034321F438
:10555000FE01A06821F47F6143EA004321F00F01BE
:105560000B43C2F80835002098E7012E17D1D4E983
:1055700000032A6843EA0043D2F8041901F0F0213D
:105580000B43C2F80439D2F80819D4E9020301F038
:10559000F02143EA00430B43C2F80839E3E7022E47
:1055A0007FF47BAFD4E900032A6843EA0043D2F8D2
:1055B000041D01F0F0210B43C2F8043DD2F8081D90
:1055C000D4E9020301F0F02143EA00430B43C2F89F
:1055D000083DC8E7D7D302340040FF00022938B5A0
:1055E00005460C4604D940F63F711A48FCF7E8FD21
:1055F0006DB32B79022B2AD17CB92B68164AD3F8CC
:1056000004110A40B2F5804F21D0D3F8082542F0AA
:105610000042C3F80825002038BD012C0DD12B68AD
:105620002046D3F82028B2F5004FF5D0D3F808294A
:1056300042F00042C3F80829EDE7022C07D12A689E
:10564000D2F8083D43F00043C2F8083DE3E70120EB
:10565000E2E700BFD7D302340040FF00022908B5BB
:1056600006D940F67E711048FCF7AAFD01200AE039
:105670000028FBD0036839B9D3F8082522F000428E
:10568000C3F80825002008BD01290BBFD3F808295D
:10569000D3F8082D22F0004222F000420CBFC3F8DC
:1056A0000829C3F8082DEDE7D7D30234022970B5D5
:1056B00005460E46144604D941F252011848FCF73B
:1056C0007FFD226852B1182A03D8164BD340DA075F
:1056D00004D441F253011248FCF772FD626852B1E2
:1056E000062A03D85423D340DB0704D441F25401E3
:1056F0000B48FCF765FD8DB12B79022B0ED1012EE5
:105700000CD1D4E90030034300202968D1F83028B7
:1057100022F01E021343C1F8303870BD0120FCE7AF
:10572000D7D3023400010101022908B506D941F29C
:105730007A010948FCF744FD012008BD0028FBD090
:105740000129F9D102680020D2F8303843F0010372
:10575000C2F83038F1E700BFD7D3023470B50E4637
:105760001446054608B9012070BD022904D941F24A
:10577000BC011E48FCF724FD226852B1182A03D848
:105780001B4BD340DA0704D441F2BD011748FCF7A4
:1057900017FD626852B1062A03D85423D340DB07B1
:1057A00004D441F2BE011148FCF70AFD2B79022B0B
:1057B000D9D1012E0CD1D4E9003029680343D1F8A6
:1057C0000C2922F01E021343C1F80C390020CBE74C
:1057D000022EC8D1D4E9003029680343D1F80C2D3A
:1057E00022F01E021343C1F80C3DEFE7D7D3023479
:1057F0000001010108B530B1022906D941F2E901E1
:105800000C48FCF7DDFC012009E0012908D1026801
:10581000D2F80C3943F00103C2F80C39002008BD5E
:105820000229F0D10268D2F80C3D43F00103C2F81E
:105830000C3DF3E7D7D3023408B530B1022906D9BD
:1058400041F20A110C48FCF7BBFC012009E00129D8
:1058500008D10268D2F80C3923F00103C2F80C39E0
:10586000002008BD0229F0D10268D2F80C3D23F0D7
:105870000103C2F80C3DF3E7D7D3023470B50E46EE
:105880001446054608B9012070BD002AFBD0022944
:1058900004D941F234113F48FCF792FC6369803B24
:1058A000B3F5607F04D341F235113A48FCF788FC28
:1058B0002369803BB3F5607F04D341F2361135484C
:1058C000FCF77EFCE368B3F5803F04D341F2371167
:1058D0003048FCF775FCA368B3F5803F04D341F270
:1058E00038112C48FCF76CFC6368B3F5805F04D377
:1058F00041F239112748FCF763FC2368B3F5805F58
:1059000004D341F23A112348FCF75AFC2B79022BBD
:10591000B9D1012E1ED1D4E904022B6842EA00421B
:10592000D3F8101901F0FC210A43C3F81029D4E977
:10593000021242EA0142C3F81429D3F81819D4E933
:10594000000201F0F02142EA00420A43C3F818299C
:10595000002099E7022E96D1D4E904022B6842EA8E
:105960000042D3F8101D01F0FC210A43C3F8102DAA
:10597000D4E9021242EA0142C3F8142DD3F8181DEB
:10598000D4E9000201F0F02142EA00420A43C3F8E0
:10599000182DDDE7D7D3023408B530B1022906D976
:1059A00041F27A110C48FCF70BFC012009E00129B7
:1059B00008D10268D2F8103943F00043C2F8103918
:1059C000002008BD0229F0D10268D2F8103D43F052
:1059D0000043C2F8103DF3E7D7D3023408B530B125
:1059E000022906D941F2BC110C48FCF7E9FB012061
:1059F00009E0012908D10268D2F8703943F00103A7
:105A0000C2F87039002008BD0229F0D10268D2F82E
:105A1000703D43F00103C2F8703DF3E7D7D3023481
:105A200008B530B1022906D941F2DD110C48FCF766
:105A3000C7FB012009E0012908D10268D2F87039BA
:105A400023F00103C2F87039002008BD0229F0D10B
:105A50000268D2F8703D23F00103C2F8703DF3E70D
:105A6000D7D3023438B5134A0368044693420D462F
:105A700008D002F17042934204D041F2F8110E486E
:105A8000FCF79EFB022D06D941F2F9110A48FCF7FA
:105A900097FB002038BD012D05D12368D3F870098C
:105AA00000F00100F6E7022DF3D12368D3F8700D62
:105AB000F6E700BF00200058D7D3023470B50E4679
:105AC0001446054608B9012070BD002AFBD0022902
:105AD00004D941F21E212448FCF772FBA26852B19E
:105AE000062A03D85423D340DB0704D441F21F21F4
:105AF0001D48FCF765FBE368072B04D94FF491516F
:105B00001948FCF75DFB2368072B04D941F22121DA
:105B10001548FCF755FB6368072B04D941F2222195
:105B20001148FCF74DFB2369072B04D941F22321CF
:105B30000D48FCF745FB012EC5D1D4E903231B0713
:105B400043EA0243A268296813432268D1F8700827
:105B500043EA0253626843EA0263044A0240134381
:105B60000020C1F87038AFE7D7D30234F9FF888836
:105B700008B530B1022906D941F24A210748FCF79D
:105B80001FFB012008BD0129FBD102680020D2F8CB
:105B9000703843F00103C2F87038F3E7D7D302340A
:105BA00008B530B1022906D941F267210748FCF750
:105BB00007FB012008BD0129FBD102680020D2F8B3
:105BC000703823F00103C2F87038F3E7D7D30234FA
:105BD000F8B50F4615461C46064608B90120F8BD23
:105BE000022904D941F289210F48FCF7E9FA072D6F
:105BF00004D941F28A210C48FCF7E2FAB4F5805F3F
:105C000004D341F28B210848FCF7DAFA012FE5D1E1
:105C1000326844EA0534D2F8203800206FF30E03CE
:105C20001C43C2F82048DAE7D7D3023450B1012927
:105C300008D102680020D2F8203843F40043C2F8AB
:105C4000203870470120704750B1012908D10268FF
:105C50000020D2F8203823F40043C2F820387047DF
:105C60000120704770B50E461446054608B901205C
:105C700070BD022918D941F2EA210D48FCF7A0FABB
:105C8000072CF4D941F2EB210948FCF799FA012ECF
:105C9000EDD129680020D1F8243823F00E0343EA1F
:105CA0004403C1F82438E3E7072AF0D9EAE700BF44
:105CB000D7D3023408B530B1022906D941F20831F0
:105CC0000748FCF77DFA012008BD0129FBD10268D5
:105CD0000020D2F8243843F00103C2F82438F3E757
:105CE000D7D3023408B530B1022906D941F22531A3
:105CF0000748FCF765FA012008BD0129FBD10268BD
:105D00000020D2F8243823F00103C2F82438F3E746
:105D1000D7D30234022910B5044604D941F23B31ED
:105D20000448FCF74DFA2368D3F82408C0F3420076
:105D300010BD00BFD7D3023438B5104A03680446FB
:105D400093420D4608D002F17042934204D041F2D2
:105D500048310B48FCF734FA022D06D941F249319B
:105D60000748FCF72DFA002038BD012DFBD1236830
:105D7000D3F8240800F00100F6E700BF0020005827
:105D8000D7D3023438B51546044608B9012038BDCA
:105D9000002AFBD0022904D941F266310648FCF7FB
:105DA0000FFA2379022BF1D123680020D3F8283889
:105DB000C3F30B032B60EAE7D7D3023470B50E466A
:105DC0001446054608B9012070BD002AFBD00229FF
:105DD00004D941F225419848FCF7F2F92378012BC8
:105DE00004D941F226419448FCF7EAF9637813F0AC
:105DF000FD0F04D041F227418F48FCF7E1F9B4F9D7
:105E00000230B3F5006F04DB41F228418A48FCF709
:105E1000D7F9B4F90430B3F5006F04DB41F229413E
:105E20008548FCF7CDF9B4F90630B3F5006F04DB13
:105E300041F22A418048FCF7C3F9B4F90830B3F5C0
:105E4000006F04DB41F22B417B48FCF7B9F9B4F950
:105E50000A30B3F5006F04DB41F22C417648FCF7C1
:105E6000AFF9B4F90C30B3F5006F04DB41F22D410A
:105E70007148FCF7A5F9B4F90E30B3F5006F04DBF7
:105E800041F22E416C48FCF79BF9B4F91030B3F5A0
:105E9000006F04DB41F22F416748FCF791F9B4F938
:105EA0001230B3F5006F04DB41F230416248FCF779
:105EB00087F9B4F91430B3F5006F04DB41F23141D6
:105EC0005D48FCF77DF9B4F91630B3F5006F04DBDB
:105ED00041F232415848FCF773F9B4F91830B3F580
